{
  "contractName": "Counter",
  "abi": [
    {
      "inputs": [],
      "name": "count",
      "outputs": [
        {
          "internalType": "uint256",
          "name": "",
          "type": "uint256"
        }
      ],
      "stateMutability": "view",
      "type": "function",
      "constant": true
    },
    {
      "inputs": [],
      "name": "getCount",
      "outputs": [
        {
          "internalType": "uint256",
          "name": "",
          "type": "uint256"
        }
      ],
      "stateMutability": "view",
      "type": "function",
      "constant": true
    },
    {
      "inputs": [],
      "name": "incrementCount",
      "outputs": [],
      "stateMutability": "nonpayable",
      "type": "function"
    }
  ],
  "bytecode": "0x60806040526000805534801561001457600080fd5b506101a1806100246000396000f3fe608060405234801561001057600080fd5b50600436106100415760003560e01c806306661abd14610046578063a87d942c14610064578063e5071b8e14610082575b600080fd5b61004e61008c565b60405161005b91906100cb565b60405180910390f35b61006c610092565b60405161007991906100cb565b60405180910390f35b61008a61009b565b005b60005481565b60008054905090565b60016000546100aa9190610115565b600081905550565b6000819050919050565b6100c5816100b2565b82525050565b60006020820190506100e060008301846100bc565b92915050565b7f4e487b7100000000000000000000000000000000000000000000000000000000600052601160045260246000fd5b6000610120826100b2565b915061012b836100b2565b9250827fffffffffffffffffffffffffffffffffffffffffffffffffffffffffffffffff038211156101605761015f6100e6565b5b82820190509291505056fea26469706673582212204a3f20b279c8bb6ee29ee70649487795f0b74f7c55e0d011aaeed5b528e63bff64736f6c634300080b0033",
  "immutableReferences": {},
  "source": "// SPDX-License-Identifier: MIT\r\n\r\npragma solidity ^0.8.11;\r\n\r\ncontract Counter {\r\n    uint public count = 0;\r\n    function getCount() public view returns(uint) {\r\n        return count;\r\n    }\r\n    function incrementCount() public {\r\n        count = count + 1;\r\n    }\r\n}",
  "sourcePath": "D:\\Coding Playground\\Solidity\\Web Truffle\\contracts\\counter.sol",
  "compiler": {
    "name": "solc",
    "version": "0.8.11+commit.d7f03943.Emscripten.clang"
  },
  "schemaVersion": "3.4.4",
  "updatedAt": "2022-02-12T12:01:05.482Z",
  "networkType": "ethereum",
  "devdoc": {
    "kind": "dev",
    "methods": {},
    "version": 1
  },
  "userdoc": {
    "kind": "user",
    "methods": {},
    "version": 1
  }
}